{
  "_format": "hh-sol-artifact-1",
  "contractName": "NFTSTORE",
  "sourceName": "contracts/NFTSTORE.sol",
  "abi": [
    {
      "inputs": [],
      "stateMutability": "nonpayable",
      "type": "constructor"
    },
    {
      "inputs": [
        {
          "internalType": "address",
          "name": "sender",
          "type": "address"
        },
        {
          "internalType": "uint256",
          "name": "tokenId",
          "type": "uint256"
        },
        {
          "internalType": "address",
          "name": "owner",
          "type": "address"
        }
      ],
      "name": "ERC721IncorrectOwner",
      "type": "error"
    },
    {
      "inputs": [
        {
          "internalType": "address",
          "name": "operator",
          "type": "address"
        },
        {
          "internalType": "uint256",
          "name": "tokenId",
          "type": "uint256"
        }
      ],
      "name": "ERC721InsufficientApproval",
      "type": "error"
    },
    {
      "inputs": [
        {
          "internalType": "address",
          "name": "approver",
          "type": "address"
        }
      ],
      "name": "ERC721InvalidApprover",
      "type": "error"
    },
    {
      "inputs": [
        {
          "internalType": "address",
          "name": "operator",
          "type": "address"
        }
      ],
      "name": "ERC721InvalidOperator",
      "type": "error"
    },
    {
      "inputs": [
        {
          "internalType": "address",
          "name": "owner",
          "type": "address"
        }
      ],
      "name": "ERC721InvalidOwner",
      "type": "error"
    },
    {
      "inputs": [
        {
          "internalType": "address",
          "name": "receiver",
          "type": "address"
        }
      ],
      "name": "ERC721InvalidReceiver",
      "type": "error"
    },
    {
      "inputs": [
        {
          "internalType": "address",
          "name": "sender",
          "type": "address"
        }
      ],
      "name": "ERC721InvalidSender",
      "type": "error"
    },
    {
      "inputs": [
        {
          "internalType": "uint256",
          "name": "tokenId",
          "type": "uint256"
        }
      ],
      "name": "ERC721NonexistentToken",
      "type": "error"
    },
    {
      "anonymous": false,
      "inputs": [
        {
          "indexed": true,
          "internalType": "address",
          "name": "owner",
          "type": "address"
        },
        {
          "indexed": true,
          "internalType": "address",
          "name": "approved",
          "type": "address"
        },
        {
          "indexed": true,
          "internalType": "uint256",
          "name": "tokenId",
          "type": "uint256"
        }
      ],
      "name": "Approval",
      "type": "event"
    },
    {
      "anonymous": false,
      "inputs": [
        {
          "indexed": true,
          "internalType": "address",
          "name": "owner",
          "type": "address"
        },
        {
          "indexed": true,
          "internalType": "address",
          "name": "operator",
          "type": "address"
        },
        {
          "indexed": false,
          "internalType": "bool",
          "name": "approved",
          "type": "bool"
        }
      ],
      "name": "ApprovalForAll",
      "type": "event"
    },
    {
      "anonymous": false,
      "inputs": [
        {
          "indexed": false,
          "internalType": "uint256",
          "name": "_fromTokenId",
          "type": "uint256"
        },
        {
          "indexed": false,
          "internalType": "uint256",
          "name": "_toTokenId",
          "type": "uint256"
        }
      ],
      "name": "BatchMetadataUpdate",
      "type": "event"
    },
    {
      "anonymous": false,
      "inputs": [
        {
          "indexed": false,
          "internalType": "uint256",
          "name": "_tokenId",
          "type": "uint256"
        }
      ],
      "name": "MetadataUpdate",
      "type": "event"
    },
    {
      "anonymous": false,
      "inputs": [
        {
          "indexed": true,
          "internalType": "address",
          "name": "buyer",
          "type": "address"
        },
        {
          "indexed": true,
          "internalType": "address",
          "name": "seller",
          "type": "address"
        },
        {
          "indexed": true,
          "internalType": "uint256",
          "name": "tokenId",
          "type": "uint256"
        },
        {
          "indexed": false,
          "internalType": "uint256",
          "name": "price",
          "type": "uint256"
        }
      ],
      "name": "NFTBought",
      "type": "event"
    },
    {
      "anonymous": false,
      "inputs": [
        {
          "indexed": true,
          "internalType": "address",
          "name": "from",
          "type": "address"
        },
        {
          "indexed": true,
          "internalType": "address",
          "name": "to",
          "type": "address"
        },
        {
          "indexed": true,
          "internalType": "uint256",
          "name": "tokenId",
          "type": "uint256"
        }
      ],
      "name": "Transfer",
      "type": "event"
    },
    {
      "inputs": [
        {
          "internalType": "address",
          "name": "to",
          "type": "address"
        },
        {
          "internalType": "uint256",
          "name": "tokenId",
          "type": "uint256"
        }
      ],
      "name": "approve",
      "outputs": [],
      "stateMutability": "nonpayable",
      "type": "function"
    },
    {
      "inputs": [
        {
          "internalType": "address",
          "name": "owner",
          "type": "address"
        }
      ],
      "name": "balanceOf",
      "outputs": [
        {
          "internalType": "uint256",
          "name": "",
          "type": "uint256"
        }
      ],
      "stateMutability": "view",
      "type": "function"
    },
    {
      "inputs": [
        {
          "internalType": "string",
          "name": "_tokenURI",
          "type": "string"
        },
        {
          "internalType": "uint256",
          "name": "_price",
          "type": "uint256"
        }
      ],
      "name": "createToken",
      "outputs": [
        {
          "internalType": "uint256",
          "name": "",
          "type": "uint256"
        }
      ],
      "stateMutability": "nonpayable",
      "type": "function"
    },
    {
      "inputs": [
        {
          "internalType": "uint256",
          "name": "tokenId",
          "type": "uint256"
        }
      ],
      "name": "executeSale",
      "outputs": [],
      "stateMutability": "payable",
      "type": "function"
    },
    {
      "inputs": [],
      "name": "getAllListedNFTs",
      "outputs": [
        {
          "components": [
            {
              "internalType": "uint256",
              "name": "tokenId",
              "type": "uint256"
            },
            {
              "internalType": "address payable",
              "name": "owner",
              "type": "address"
            },
            {
              "internalType": "address payable",
              "name": "seller",
              "type": "address"
            },
            {
              "internalType": "uint256",
              "name": "price",
              "type": "uint256"
            }
          ],
          "internalType": "struct NFTSTORE.NFTListing[]",
          "name": "",
          "type": "tuple[]"
        }
      ],
      "stateMutability": "view",
      "type": "function"
    },
    {
      "inputs": [
        {
          "internalType": "uint256",
          "name": "tokenId",
          "type": "uint256"
        }
      ],
      "name": "getApproved",
      "outputs": [
        {
          "internalType": "address",
          "name": "",
          "type": "address"
        }
      ],
      "stateMutability": "view",
      "type": "function"
    },
    {
      "inputs": [],
      "name": "getCurrentTokenId",
      "outputs": [
        {
          "internalType": "uint256",
          "name": "",
          "type": "uint256"
        }
      ],
      "stateMutability": "view",
      "type": "function"
    },
    {
      "inputs": [],
      "name": "getListingFeePercent",
      "outputs": [
        {
          "internalType": "uint256",
          "name": "",
          "type": "uint256"
        }
      ],
      "stateMutability": "view",
      "type": "function"
    },
    {
      "inputs": [],
      "name": "getMyNFTs",
      "outputs": [
        {
          "components": [
            {
              "internalType": "uint256",
              "name": "tokenId",
              "type": "uint256"
            },
            {
              "internalType": "address payable",
              "name": "owner",
              "type": "address"
            },
            {
              "internalType": "address payable",
              "name": "seller",
              "type": "address"
            },
            {
              "internalType": "uint256",
              "name": "price",
              "type": "uint256"
            }
          ],
          "internalType": "struct NFTSTORE.NFTListing[]",
          "name": "",
          "type": "tuple[]"
        }
      ],
      "stateMutability": "view",
      "type": "function"
    },
    {
      "inputs": [
        {
          "internalType": "uint256",
          "name": "_tokenId",
          "type": "uint256"
        }
      ],
      "name": "getNFTListing",
      "outputs": [
        {
          "components": [
            {
              "internalType": "uint256",
              "name": "tokenId",
              "type": "uint256"
            },
            {
              "internalType": "address payable",
              "name": "owner",
              "type": "address"
            },
            {
              "internalType": "address payable",
              "name": "seller",
              "type": "address"
            },
            {
              "internalType": "uint256",
              "name": "price",
              "type": "uint256"
            }
          ],
          "internalType": "struct NFTSTORE.NFTListing",
          "name": "",
          "type": "tuple"
        }
      ],
      "stateMutability": "view",
      "type": "function"
    },
    {
      "inputs": [
        {
          "internalType": "address",
          "name": "owner",
          "type": "address"
        },
        {
          "internalType": "address",
          "name": "operator",
          "type": "address"
        }
      ],
      "name": "isApprovedForAll",
      "outputs": [
        {
          "internalType": "bool",
          "name": "",
          "type": "bool"
        }
      ],
      "stateMutability": "view",
      "type": "function"
    },
    {
      "inputs": [],
      "name": "listingFeePercent",
      "outputs": [
        {
          "internalType": "uint256",
          "name": "",
          "type": "uint256"
        }
      ],
      "stateMutability": "view",
      "type": "function"
    },
    {
      "inputs": [],
      "name": "marketplaceOwner",
      "outputs": [
        {
          "internalType": "address payable",
          "name": "",
          "type": "address"
        }
      ],
      "stateMutability": "view",
      "type": "function"
    },
    {
      "inputs": [],
      "name": "name",
      "outputs": [
        {
          "internalType": "string",
          "name": "",
          "type": "string"
        }
      ],
      "stateMutability": "view",
      "type": "function"
    },
    {
      "inputs": [
        {
          "internalType": "uint256",
          "name": "tokenId",
          "type": "uint256"
        }
      ],
      "name": "ownerOf",
      "outputs": [
        {
          "internalType": "address",
          "name": "",
          "type": "address"
        }
      ],
      "stateMutability": "view",
      "type": "function"
    },
    {
      "inputs": [
        {
          "internalType": "address",
          "name": "from",
          "type": "address"
        },
        {
          "internalType": "address",
          "name": "to",
          "type": "address"
        },
        {
          "internalType": "uint256",
          "name": "tokenId",
          "type": "uint256"
        }
      ],
      "name": "safeTransferFrom",
      "outputs": [],
      "stateMutability": "nonpayable",
      "type": "function"
    },
    {
      "inputs": [
        {
          "internalType": "address",
          "name": "from",
          "type": "address"
        },
        {
          "internalType": "address",
          "name": "to",
          "type": "address"
        },
        {
          "internalType": "uint256",
          "name": "tokenId",
          "type": "uint256"
        },
        {
          "internalType": "bytes",
          "name": "data",
          "type": "bytes"
        }
      ],
      "name": "safeTransferFrom",
      "outputs": [],
      "stateMutability": "nonpayable",
      "type": "function"
    },
    {
      "inputs": [
        {
          "internalType": "address",
          "name": "operator",
          "type": "address"
        },
        {
          "internalType": "bool",
          "name": "approved",
          "type": "bool"
        }
      ],
      "name": "setApprovalForAll",
      "outputs": [],
      "stateMutability": "nonpayable",
      "type": "function"
    },
    {
      "inputs": [
        {
          "internalType": "bytes4",
          "name": "interfaceId",
          "type": "bytes4"
        }
      ],
      "name": "supportsInterface",
      "outputs": [
        {
          "internalType": "bool",
          "name": "",
          "type": "bool"
        }
      ],
      "stateMutability": "view",
      "type": "function"
    },
    {
      "inputs": [],
      "name": "symbol",
      "outputs": [
        {
          "internalType": "string",
          "name": "",
          "type": "string"
        }
      ],
      "stateMutability": "view",
      "type": "function"
    },
    {
      "inputs": [
        {
          "internalType": "uint256",
          "name": "tokenId",
          "type": "uint256"
        }
      ],
      "name": "tokenURI",
      "outputs": [
        {
          "internalType": "string",
          "name": "",
          "type": "string"
        }
      ],
      "stateMutability": "view",
      "type": "function"
    },
    {
      "inputs": [
        {
          "internalType": "address",
          "name": "from",
          "type": "address"
        },
        {
          "internalType": "address",
          "name": "to",
          "type": "address"
        },
        {
          "internalType": "uint256",
          "name": "tokenId",
          "type": "uint256"
        }
      ],
      "name": "transferFrom",
      "outputs": [],
      "stateMutability": "nonpayable",
      "type": "function"
    },
    {
      "inputs": [
        {
          "internalType": "uint256",
          "name": "_listingFeePercent",
          "type": "uint256"
        }
      ],
      "name": "updateListingFeePercent",
      "outputs": [],
      "stateMutability": "nonpayable",
      "type": "function"
    }
  ],
  "bytecode": "0x608060405260146008553480156200001657600080fd5b506040518060400160405280600881526020017f4e465453544f52450000000000000000000000000000000000000000000000008152506040518060400160405280600481526020017f4e4654530000000000000000000000000000000000000000000000000000000081525081600090816200009491906200036a565b508060019081620000a691906200036a565b50505033600760006101000a81548173ffffffffffffffffffffffffffffffffffffffff021916908373ffffffffffffffffffffffffffffffffffffffff16021790555062000451565b600081519050919050565b7f4e487b7100000000000000000000000000000000000000000000000000000000600052604160045260246000fd5b7f4e487b7100000000000000000000000000000000000000000000000000000000600052602260045260246000fd5b600060028204905060018216806200017257607f821691505b6020821081036200018857620001876200012a565b5b50919050565b60008190508160005260206000209050919050565b60006020601f8301049050919050565b600082821b905092915050565b600060088302620001f27fffffffffffffffffffffffffffffffffffffffffffffffffffffffffffffffff82620001b3565b620001fe8683620001b3565b95508019841693508086168417925050509392505050565b6000819050919050565b6000819050919050565b60006200024b620002456200023f8462000216565b62000220565b62000216565b9050919050565b6000819050919050565b62000267836200022a565b6200027f620002768262000252565b848454620001c0565b825550505050565b600090565b6200029662000287565b620002a38184846200025c565b505050565b5b81811015620002cb57620002bf6000826200028c565b600181019050620002a9565b5050565b601f8211156200031a57620002e4816200018e565b620002ef84620001a3565b81016020851015620002ff578190505b620003176200030e85620001a3565b830182620002a8565b50505b505050565b600082821c905092915050565b60006200033f600019846008026200031f565b1980831691505092915050565b60006200035a83836200032c565b9150826002028217905092915050565b6200037582620000f0565b67ffffffffffffffff811115620003915762000390620000fb565b5b6200039d825462000159565b620003aa828285620002cf565b600060209050601f831160018114620003e25760008415620003cd578287015190505b620003d985826200034c565b86555062000449565b601f198416620003f2866200018e565b60005b828110156200041c57848901518255600182019150602085019450602081019050620003f5565b868310156200043c578489015162000438601f8916826200032c565b8355505b6001600288020188555050505b505050505050565b6137a280620004616000396000f3fe6080604052600436106101405760003560e01c8063629cb2e4116100b65780639b1225c41161006f5780639b1225c414610486578063a22cb465146104a2578063ac6a9185146104cb578063b88d4fde146104f4578063c87b56dd1461051d578063e985e9c51461055a57610140565b8063629cb2e41461034e5780636352211e14610379578063650025a0146103b657806370a08231146103e157806372b3b6201461041e57806395d89b411461045b57610140565b80630ea59c4b116101085780630ea59c4b1461023e57806323b872dd1461027b57806342842e0e146102a45780634b58ffaa146102cd57806356189236146102f85780636151ff2e1461032357610140565b806301ffc9a71461014557806306fc12451461018257806306fdde03146101ad578063081812fc146101d8578063095ea7b314610215575b600080fd5b34801561015157600080fd5b5061016c60048036038101906101679190612770565b610597565b60405161017991906127b8565b60405180910390f35b34801561018e57600080fd5b506101976105f8565b6040516101a491906127ec565b60405180910390f35b3480156101b957600080fd5b506101c2610602565b6040516101cf9190612897565b60405180910390f35b3480156101e457600080fd5b506101ff60048036038101906101fa91906128e5565b610694565b60405161020c9190612953565b60405180910390f35b34801561022157600080fd5b5061023c6004803603810190610237919061299a565b6106b0565b005b34801561024a57600080fd5b50610265600480360381019061026091906128e5565b6106c6565b6040516102729190612a5f565b60405180910390f35b34801561028757600080fd5b506102a2600480360381019061029d9190612a7a565b6107b3565b005b3480156102b057600080fd5b506102cb60048036038101906102c69190612a7a565b6108b5565b005b3480156102d957600080fd5b506102e26108d5565b6040516102ef9190612bd1565b60405180910390f35b34801561030457600080fd5b5061030d610a7c565b60405161031a91906127ec565b60405180910390f35b34801561032f57600080fd5b50610338610a86565b60405161034591906127ec565b60405180910390f35b34801561035a57600080fd5b50610363610a8c565b6040516103709190612bd1565b60405180910390f35b34801561038557600080fd5b506103a0600480360381019061039b91906128e5565b610e3a565b6040516103ad9190612953565b60405180910390f35b3480156103c257600080fd5b506103cb610e4c565b6040516103d89190612c02565b60405180910390f35b3480156103ed57600080fd5b5061040860048036038101906104039190612c1d565b610e72565b60405161041591906127ec565b60405180910390f35b34801561042a57600080fd5b5061044560048036038101906104409190612d7f565b610f2c565b60405161045291906127ec565b60405180910390f35b34801561046757600080fd5b50610470610fb7565b60405161047d9190612897565b60405180910390f35b6104a0600480360381019061049b91906128e5565b611049565b005b3480156104ae57600080fd5b506104c960048036038101906104c49190612e07565b6112a4565b005b3480156104d757600080fd5b506104f260048036038101906104ed91906128e5565b6112ba565b005b34801561050057600080fd5b5061051b60048036038101906105169190612ee8565b611354565b005b34801561052957600080fd5b50610544600480360381019061053f91906128e5565b611371565b6040516105519190612897565b60405180910390f35b34801561056657600080fd5b50610581600480360381019061057c9190612f6b565b611484565b60405161058e91906127b8565b60405180910390f35b6000634906490660e01b7bffffffffffffffffffffffffffffffffffffffffffffffffffffffff1916827bffffffffffffffffffffffffffffffffffffffffffffffffffffffff191614806105f157506105f082611518565b5b9050919050565b6000600854905090565b60606000805461061190612fda565b80601f016020809104026020016040519081016040528092919081815260200182805461063d90612fda565b801561068a5780601f1061065f5761010080835404028352916020019161068a565b820191906000526020600020905b81548152906001019060200180831161066d57829003601f168201915b5050505050905090565b600061069f826115fa565b506106a982611682565b9050919050565b6106c282826106bd6116bf565b6116c7565b5050565b6106ce6126b0565b600b6000838152602001908152602001600020604051806080016040529081600082015481526020016001820160009054906101000a900473ffffffffffffffffffffffffffffffffffffffff1673ffffffffffffffffffffffffffffffffffffffff1673ffffffffffffffffffffffffffffffffffffffff1681526020016002820160009054906101000a900473ffffffffffffffffffffffffffffffffffffffff1673ffffffffffffffffffffffffffffffffffffffff1673ffffffffffffffffffffffffffffffffffffffff1681526020016003820154815250509050919050565b600073ffffffffffffffffffffffffffffffffffffffff168273ffffffffffffffffffffffffffffffffffffffff16036108255760006040517f64a0ae9200000000000000000000000000000000000000000000000000000000815260040161081c9190612953565b60405180910390fd5b600061083983836108346116bf565b6116d9565b90508373ffffffffffffffffffffffffffffffffffffffff168173ffffffffffffffffffffffffffffffffffffffff16146108af578382826040517f64283d7b0000000000000000000000000000000000000000000000000000000081526004016108a69392919061300b565b60405180910390fd5b50505050565b6108d083838360405180602001604052806000815250611354565b505050565b60606000600954905060008167ffffffffffffffff8111156108fa576108f9612c54565b5b60405190808252806020026020018201604052801561093357816020015b6109206126b0565b8152602001906001900390816109185790505b5090506000805b83811015610a725760006001826109519190613071565b90506000600b6000838152602001908152602001600020905080604051806080016040529081600082015481526020016001820160009054906101000a900473ffffffffffffffffffffffffffffffffffffffff1673ffffffffffffffffffffffffffffffffffffffff1673ffffffffffffffffffffffffffffffffffffffff1681526020016002820160009054906101000a900473ffffffffffffffffffffffffffffffffffffffff1673ffffffffffffffffffffffffffffffffffffffff1673ffffffffffffffffffffffffffffffffffffffff168152602001600382015481525050858581518110610a4957610a486130a5565b5b6020026020010181905250600184610a619190613071565b93505050808060010191505061093a565b5081935050505090565b6000600954905090565b60085481565b60606000600954905060008060005b83811015610bad573373ffffffffffffffffffffffffffffffffffffffff16600b6000600184610acb9190613071565b815260200190815260200160002060010160009054906101000a900473ffffffffffffffffffffffffffffffffffffffff1673ffffffffffffffffffffffffffffffffffffffff161480610b8c57503373ffffffffffffffffffffffffffffffffffffffff16600b6000600184610b429190613071565b815260200190815260200160002060020160009054906101000a900473ffffffffffffffffffffffffffffffffffffffff1673ffffffffffffffffffffffffffffffffffffffff16145b15610ba0578280610b9c906130d4565b9350505b8080600101915050610a9b565b5060008267ffffffffffffffff811115610bca57610bc9612c54565b5b604051908082528060200260200182016040528015610c0357816020015b610bf06126b0565b815260200190600190039081610be85790505b50905060005b84811015610e2f573373ffffffffffffffffffffffffffffffffffffffff16600b6000600184610c399190613071565b815260200190815260200160002060010160009054906101000a900473ffffffffffffffffffffffffffffffffffffffff1673ffffffffffffffffffffffffffffffffffffffff161480610cfa57503373ffffffffffffffffffffffffffffffffffffffff16600b6000600184610cb09190613071565b815260200190815260200160002060020160009054906101000a900473ffffffffffffffffffffffffffffffffffffffff1673ffffffffffffffffffffffffffffffffffffffff16145b15610e22576000600182610d0e9190613071565b90506000600b6000838152602001908152602001600020905080604051806080016040529081600082015481526020016001820160009054906101000a900473ffffffffffffffffffffffffffffffffffffffff1673ffffffffffffffffffffffffffffffffffffffff1673ffffffffffffffffffffffffffffffffffffffff1681526020016002820160009054906101000a900473ffffffffffffffffffffffffffffffffffffffff1673ffffffffffffffffffffffffffffffffffffffff1673ffffffffffffffffffffffffffffffffffffffff168152602001600382015481525050848681518110610e0657610e056130a5565b5b60200260200101819052508480610e1c906130d4565b95505050505b8080600101915050610c09565b508094505050505090565b6000610e45826115fa565b9050919050565b600760009054906101000a900473ffffffffffffffffffffffffffffffffffffffff1681565b60008073ffffffffffffffffffffffffffffffffffffffff168273ffffffffffffffffffffffffffffffffffffffff1603610ee55760006040517f89c62b64000000000000000000000000000000000000000000000000000000008152600401610edc9190612953565b60405180910390fd5b600360008373ffffffffffffffffffffffffffffffffffffffff1673ffffffffffffffffffffffffffffffffffffffff168152602001908152602001600020549050919050565b6000808211610f70576040517f08c379a0000000000000000000000000000000000000000000000000000000008152600401610f6790613168565b60405180910390fd5b60096000815480929190610f83906130d4565b919050555060006009549050610f9933826118f3565b610fa38185611911565b610fad818461196d565b8091505092915050565b606060018054610fc690612fda565b80601f0160208091040260200160405190810160405280929190818152602001828054610ff290612fda565b801561103f5780601f106110145761010080835404028352916020019161103f565b820191906000526020600020905b81548152906001019060200180831161102257829003601f168201915b5050505050905090565b6000600b6000838152602001908152602001600020905060008160030154905060008260020160009054906101000a900473ffffffffffffffffffffffffffffffffffffffff1690508134146110d4576040517f08c379a00000000000000000000000000000000000000000000000000000000081526004016110cb906131fa565b60405180910390fd5b338360020160006101000a81548173ffffffffffffffffffffffffffffffffffffffff021916908373ffffffffffffffffffffffffffffffffffffffff160217905550600a600081548092919061112a906130d4565b919050555061115e8360010160009054906101000a900473ffffffffffffffffffffffffffffffffffffffff163386611a76565b6000606460085484611170919061321a565b61117a919061328b565b9050600760009054906101000a900473ffffffffffffffffffffffffffffffffffffffff1673ffffffffffffffffffffffffffffffffffffffff166108fc829081150290604051600060405180830381858888f193505050501580156111e4573d6000803e3d6000fd5b508173ffffffffffffffffffffffffffffffffffffffff166108fc823461120b91906132bc565b9081150290604051600060405180830381858888f19350505050158015611236573d6000803e3d6000fd5b50848273ffffffffffffffffffffffffffffffffffffffff163373ffffffffffffffffffffffffffffffffffffffff167f5a55b2d970d079d39ce4c5dc9ec6de52ebfc2bbcfc7466d62eea534ee87366738660405161129591906127ec565b60405180910390a45050505050565b6112b66112af6116bf565b8383611be3565b5050565b600760009054906101000a900473ffffffffffffffffffffffffffffffffffffffff1673ffffffffffffffffffffffffffffffffffffffff163373ffffffffffffffffffffffffffffffffffffffff161461134a576040517f08c379a000000000000000000000000000000000000000000000000000000000815260040161134190613362565b60405180910390fd5b8060088190555050565b61135f8484846107b3565b61136b84848484611d52565b50505050565b606061137c826115fa565b50600060066000848152602001908152602001600020805461139d90612fda565b80601f01602080910402602001604051908101604052809291908181526020018280546113c990612fda565b80156114165780601f106113eb57610100808354040283529160200191611416565b820191906000526020600020905b8154815290600101906020018083116113f957829003601f168201915b505050505090506000611427611f09565b9050600081510361143c57819250505061147f565b6000825111156114715780826040516020016114599291906133be565b6040516020818303038152906040529250505061147f565b61147a84611f20565b925050505b919050565b6000600560008473ffffffffffffffffffffffffffffffffffffffff1673ffffffffffffffffffffffffffffffffffffffff16815260200190815260200160002060008373ffffffffffffffffffffffffffffffffffffffff1673ffffffffffffffffffffffffffffffffffffffff16815260200190815260200160002060009054906101000a900460ff16905092915050565b60007f80ac58cd000000000000000000000000000000000000000000000000000000007bffffffffffffffffffffffffffffffffffffffffffffffffffffffff1916827bffffffffffffffffffffffffffffffffffffffffffffffffffffffff191614806115e357507f5b5e139f000000000000000000000000000000000000000000000000000000007bffffffffffffffffffffffffffffffffffffffffffffffffffffffff1916827bffffffffffffffffffffffffffffffffffffffffffffffffffffffff1916145b806115f357506115f282611f89565b5b9050919050565b60008061160683611ff3565b9050600073ffffffffffffffffffffffffffffffffffffffff168173ffffffffffffffffffffffffffffffffffffffff160361167957826040517f7e27328900000000000000000000000000000000000000000000000000000000815260040161167091906127ec565b60405180910390fd5b80915050919050565b60006004600083815260200190815260200160002060009054906101000a900473ffffffffffffffffffffffffffffffffffffffff169050919050565b600033905090565b6116d48383836001612030565b505050565b6000806116e584611ff3565b9050600073ffffffffffffffffffffffffffffffffffffffff168373ffffffffffffffffffffffffffffffffffffffff1614611727576117268184866121f5565b5b600073ffffffffffffffffffffffffffffffffffffffff168173ffffffffffffffffffffffffffffffffffffffff16146117b857611769600085600080612030565b6001600360008373ffffffffffffffffffffffffffffffffffffffff1673ffffffffffffffffffffffffffffffffffffffff168152602001908152602001600020600082825403925050819055505b600073ffffffffffffffffffffffffffffffffffffffff168573ffffffffffffffffffffffffffffffffffffffff161461183b576001600360008773ffffffffffffffffffffffffffffffffffffffff1673ffffffffffffffffffffffffffffffffffffffff168152602001908152602001600020600082825401925050819055505b846002600086815260200190815260200160002060006101000a81548173ffffffffffffffffffffffffffffffffffffffff021916908373ffffffffffffffffffffffffffffffffffffffff160217905550838573ffffffffffffffffffffffffffffffffffffffff168273ffffffffffffffffffffffffffffffffffffffff167fddf252ad1be2c89b69c2b068fc378daa952ba7f163c4a11628f55a4df523b3ef60405160405180910390a4809150509392505050565b61190d8282604051806020016040528060008152506122b9565b5050565b80600660008481526020019081526020016000209081611931919061358e565b507ff8e1a15aba9398e019f0b49df1a4fde98ee17ae345cb5f6b5e2c27f5033e8ce78260405161196191906127ec565b60405180910390a15050565b60405180608001604052808381526020013373ffffffffffffffffffffffffffffffffffffffff1681526020013373ffffffffffffffffffffffffffffffffffffffff16815260200182815250600b60008481526020019081526020016000206000820151816000015560208201518160010160006101000a81548173ffffffffffffffffffffffffffffffffffffffff021916908373ffffffffffffffffffffffffffffffffffffffff16021790555060408201518160020160006101000a81548173ffffffffffffffffffffffffffffffffffffffff021916908373ffffffffffffffffffffffffffffffffffffffff160217905550606082015181600301559050505050565b600073ffffffffffffffffffffffffffffffffffffffff168273ffffffffffffffffffffffffffffffffffffffff1603611ae85760006040517f64a0ae92000000000000000000000000000000000000000000000000000000008152600401611adf9190612953565b60405180910390fd5b6000611af6838360006116d9565b9050600073ffffffffffffffffffffffffffffffffffffffff168173ffffffffffffffffffffffffffffffffffffffff1603611b6957816040517f7e273289000000000000000000000000000000000000000000000000000000008152600401611b6091906127ec565b60405180910390fd5b8373ffffffffffffffffffffffffffffffffffffffff168173ffffffffffffffffffffffffffffffffffffffff1614611bdd578382826040517f64283d7b000000000000000000000000000000000000000000000000000000008152600401611bd49392919061300b565b60405180910390fd5b50505050565b600073ffffffffffffffffffffffffffffffffffffffff168273ffffffffffffffffffffffffffffffffffffffff1603611c5457816040517f5b08ba18000000000000000000000000000000000000000000000000000000008152600401611c4b9190612953565b60405180910390fd5b80600560008573ffffffffffffffffffffffffffffffffffffffff1673ffffffffffffffffffffffffffffffffffffffff16815260200190815260200160002060008473ffffffffffffffffffffffffffffffffffffffff1673ffffffffffffffffffffffffffffffffffffffff16815260200190815260200160002060006101000a81548160ff0219169083151502179055508173ffffffffffffffffffffffffffffffffffffffff168373ffffffffffffffffffffffffffffffffffffffff167f17307eab39ab6107e8899845ad3d59bd9653f200f220920489ca2b5937696c3183604051611d4591906127b8565b60405180910390a3505050565b60008373ffffffffffffffffffffffffffffffffffffffff163b1115611f03578273ffffffffffffffffffffffffffffffffffffffff1663150b7a02611d966116bf565b8685856040518563ffffffff1660e01b8152600401611db894939291906136b5565b6020604051808303816000875af1925050508015611df457506040513d601f19601f82011682018060405250810190611df19190613716565b60015b611e78573d8060008114611e24576040519150601f19603f3d011682016040523d82523d6000602084013e611e29565b606091505b506000815103611e7057836040517f64a0ae92000000000000000000000000000000000000000000000000000000008152600401611e679190612953565b60405180910390fd5b805181602001fd5b63150b7a0260e01b7bffffffffffffffffffffffffffffffffffffffffffffffffffffffff1916817bffffffffffffffffffffffffffffffffffffffffffffffffffffffff191614611f0157836040517f64a0ae92000000000000000000000000000000000000000000000000000000008152600401611ef89190612953565b60405180910390fd5b505b50505050565b606060405180602001604052806000815250905090565b6060611f2b826115fa565b506000611f36611f09565b90506000815111611f565760405180602001604052806000815250611f81565b80611f60846122d5565b604051602001611f719291906133be565b6040516020818303038152906040525b915050919050565b60007f01ffc9a7000000000000000000000000000000000000000000000000000000007bffffffffffffffffffffffffffffffffffffffffffffffffffffffff1916827bffffffffffffffffffffffffffffffffffffffffffffffffffffffff1916149050919050565b60006002600083815260200190815260200160002060009054906101000a900473ffffffffffffffffffffffffffffffffffffffff169050919050565b80806120695750600073ffffffffffffffffffffffffffffffffffffffff168273ffffffffffffffffffffffffffffffffffffffff1614155b1561219d576000612079846115fa565b9050600073ffffffffffffffffffffffffffffffffffffffff168373ffffffffffffffffffffffffffffffffffffffff16141580156120e457508273ffffffffffffffffffffffffffffffffffffffff168173ffffffffffffffffffffffffffffffffffffffff1614155b80156120f757506120f58184611484565b155b1561213957826040517fa9fbf51f0000000000000000000000000000000000000000000000000000000081526004016121309190612953565b60405180910390fd5b811561219b57838573ffffffffffffffffffffffffffffffffffffffff168273ffffffffffffffffffffffffffffffffffffffff167f8c5be1e5ebec7d5bd14f71427d1e84f3dd0314c0f7b2291e5b200ac8c7c3b92560405160405180910390a45b505b836004600085815260200190815260200160002060006101000a81548173ffffffffffffffffffffffffffffffffffffffff021916908373ffffffffffffffffffffffffffffffffffffffff16021790555050505050565b6122008383836123a3565b6122b457600073ffffffffffffffffffffffffffffffffffffffff168373ffffffffffffffffffffffffffffffffffffffff160361227557806040517f7e27328900000000000000000000000000000000000000000000000000000000815260040161226c91906127ec565b60405180910390fd5b81816040517f177e802f0000000000000000000000000000000000000000000000000000000081526004016122ab929190613743565b60405180910390fd5b505050565b6122c38383612464565b6122d06000848484611d52565b505050565b6060600060016122e48461255d565b01905060008167ffffffffffffffff81111561230357612302612c54565b5b6040519080825280601f01601f1916602001820160405280156123355781602001600182028036833780820191505090505b509050600082602001820190505b600115612398578080600190039150507f3031323334353637383961626364656600000000000000000000000000000000600a86061a8153600a858161238c5761238b61325c565b5b04945060008503612343575b819350505050919050565b60008073ffffffffffffffffffffffffffffffffffffffff168373ffffffffffffffffffffffffffffffffffffffff161415801561245b57508273ffffffffffffffffffffffffffffffffffffffff168473ffffffffffffffffffffffffffffffffffffffff16148061241c575061241b8484611484565b5b8061245a57508273ffffffffffffffffffffffffffffffffffffffff1661244283611682565b73ffffffffffffffffffffffffffffffffffffffff16145b5b90509392505050565b600073ffffffffffffffffffffffffffffffffffffffff168273ffffffffffffffffffffffffffffffffffffffff16036124d65760006040517f64a0ae920000000000000000000000000000000000000000000000000000000081526004016124cd9190612953565b60405180910390fd5b60006124e4838360006116d9565b9050600073ffffffffffffffffffffffffffffffffffffffff168173ffffffffffffffffffffffffffffffffffffffff16146125585760006040517f73c6ac6e00000000000000000000000000000000000000000000000000000000815260040161254f9190612953565b60405180910390fd5b505050565b600080600090507a184f03e93ff9f4daa797ed6e38ed64bf6a1f01000000000000000083106125bb577a184f03e93ff9f4daa797ed6e38ed64bf6a1f01000000000000000083816125b1576125b061325c565b5b0492506040810190505b6d04ee2d6d415b85acef810000000083106125f8576d04ee2d6d415b85acef810000000083816125ee576125ed61325c565b5b0492506020810190505b662386f26fc10000831061262757662386f26fc10000838161261d5761261c61325c565b5b0492506010810190505b6305f5e1008310612650576305f5e10083816126465761264561325c565b5b0492506008810190505b612710831061267557612710838161266b5761266a61325c565b5b0492506004810190505b60648310612698576064838161268e5761268d61325c565b5b0492506002810190505b600a83106126a7576001810190505b80915050919050565b604051806080016040528060008152602001600073ffffffffffffffffffffffffffffffffffffffff168152602001600073ffffffffffffffffffffffffffffffffffffffff168152602001600081525090565b6000604051905090565b600080fd5b600080fd5b60007fffffffff0000000000000000000000000000000000000000000000000000000082169050919050565b61274d81612718565b811461275857600080fd5b50565b60008135905061276a81612744565b92915050565b6000602082840312156127865761278561270e565b5b60006127948482850161275b565b91505092915050565b60008115159050919050565b6127b28161279d565b82525050565b60006020820190506127cd60008301846127a9565b92915050565b6000819050919050565b6127e6816127d3565b82525050565b600060208201905061280160008301846127dd565b92915050565b600081519050919050565b600082825260208201905092915050565b60005b83811015612841578082015181840152602081019050612826565b60008484015250505050565b6000601f19601f8301169050919050565b600061286982612807565b6128738185612812565b9350612883818560208601612823565b61288c8161284d565b840191505092915050565b600060208201905081810360008301526128b1818461285e565b905092915050565b6128c2816127d3565b81146128cd57600080fd5b50565b6000813590506128df816128b9565b92915050565b6000602082840312156128fb576128fa61270e565b5b6000612909848285016128d0565b91505092915050565b600073ffffffffffffffffffffffffffffffffffffffff82169050919050565b600061293d82612912565b9050919050565b61294d81612932565b82525050565b60006020820190506129686000830184612944565b92915050565b61297781612932565b811461298257600080fd5b50565b6000813590506129948161296e565b92915050565b600080604083850312156129b1576129b061270e565b5b60006129bf85828601612985565b92505060206129d0858286016128d0565b9150509250929050565b6129e3816127d3565b82525050565b60006129f482612912565b9050919050565b612a04816129e9565b82525050565b608082016000820151612a2060008501826129da565b506020820151612a3360208501826129fb565b506040820151612a4660408501826129fb565b506060820151612a5960608501826129da565b50505050565b6000608082019050612a746000830184612a0a565b92915050565b600080600060608486031215612a9357612a9261270e565b5b6000612aa186828701612985565b9350506020612ab286828701612985565b9250506040612ac3868287016128d0565b9150509250925092565b600081519050919050565b600082825260208201905092915050565b6000819050602082019050919050565b608082016000820151612b0f60008501826129da565b506020820151612b2260208501826129fb565b506040820151612b3560408501826129fb565b506060820151612b4860608501826129da565b50505050565b6000612b5a8383612af9565b60808301905092915050565b6000602082019050919050565b6000612b7e82612acd565b612b888185612ad8565b9350612b9383612ae9565b8060005b83811015612bc4578151612bab8882612b4e565b9750612bb683612b66565b925050600181019050612b97565b5085935050505092915050565b60006020820190508181036000830152612beb8184612b73565b905092915050565b612bfc816129e9565b82525050565b6000602082019050612c176000830184612bf3565b92915050565b600060208284031215612c3357612c3261270e565b5b6000612c4184828501612985565b91505092915050565b600080fd5b600080fd5b7f4e487b7100000000000000000000000000000000000000000000000000000000600052604160045260246000fd5b612c8c8261284d565b810181811067ffffffffffffffff82111715612cab57612caa612c54565b5b80604052505050565b6000612cbe612704565b9050612cca8282612c83565b919050565b600067ffffffffffffffff821115612cea57612ce9612c54565b5b612cf38261284d565b9050602081019050919050565b82818337600083830152505050565b6000612d22612d1d84612ccf565b612cb4565b905082815260208101848484011115612d3e57612d3d612c4f565b5b612d49848285612d00565b509392505050565b600082601f830112612d6657612d65612c4a565b5b8135612d76848260208601612d0f565b91505092915050565b60008060408385031215612d9657612d9561270e565b5b600083013567ffffffffffffffff811115612db457612db3612713565b5b612dc085828601612d51565b9250506020612dd1858286016128d0565b9150509250929050565b612de48161279d565b8114612def57600080fd5b50565b600081359050612e0181612ddb565b92915050565b60008060408385031215612e1e57612e1d61270e565b5b6000612e2c85828601612985565b9250506020612e3d85828601612df2565b9150509250929050565b600067ffffffffffffffff821115612e6257612e61612c54565b5b612e6b8261284d565b9050602081019050919050565b6000612e8b612e8684612e47565b612cb4565b905082815260208101848484011115612ea757612ea6612c4f565b5b612eb2848285612d00565b509392505050565b600082601f830112612ecf57612ece612c4a565b5b8135612edf848260208601612e78565b91505092915050565b60008060008060808587031215612f0257612f0161270e565b5b6000612f1087828801612985565b9450506020612f2187828801612985565b9350506040612f32878288016128d0565b925050606085013567ffffffffffffffff811115612f5357612f52612713565b5b612f5f87828801612eba565b91505092959194509250565b60008060408385031215612f8257612f8161270e565b5b6000612f9085828601612985565b9250506020612fa185828601612985565b9150509250929050565b7f4e487b7100000000000000000000000000000000000000000000000000000000600052602260045260246000fd5b60006002820490506001821680612ff257607f821691505b60208210810361300557613004612fab565b5b50919050565b60006060820190506130206000830186612944565b61302d60208301856127dd565b61303a6040830184612944565b949350505050565b7f4e487b7100000000000000000000000000000000000000000000000000000000600052601160045260246000fd5b600061307c826127d3565b9150613087836127d3565b925082820190508082111561309f5761309e613042565b5b92915050565b7f4e487b7100000000000000000000000000000000000000000000000000000000600052603260045260246000fd5b60006130df826127d3565b91507fffffffffffffffffffffffffffffffffffffffffffffffffffffffffffffffff820361311157613110613042565b5b600182019050919050565b7f5072696365206d7573742062652067726561746572207468616e207a65726f00600082015250565b6000613152601f83612812565b915061315d8261311c565b602082019050919050565b6000602082019050818103600083015261318181613145565b9050919050565b7f506c65617365207375626d6974207468652061736b696e67207072696365207460008201527f6f20636f6d706c65746520746865207075726368617365000000000000000000602082015250565b60006131e4603783612812565b91506131ef82613188565b604082019050919050565b60006020820190508181036000830152613213816131d7565b9050919050565b6000613225826127d3565b9150613230836127d3565b925082820261323e816127d3565b9150828204841483151761325557613254613042565b5b5092915050565b7f4e487b7100000000000000000000000000000000000000000000000000000000600052601260045260246000fd5b6000613296826127d3565b91506132a1836127d3565b9250826132b1576132b061325c565b5b828204905092915050565b60006132c7826127d3565b91506132d2836127d3565b92508282039050818111156132ea576132e9613042565b5b92915050565b7f4f6e6c79206f776e65722063616e2063616c6c20746869732066756e6374696f60008201527f6e00000000000000000000000000000000000000000000000000000000000000602082015250565b600061334c602183612812565b9150613357826132f0565b604082019050919050565b6000602082019050818103600083015261337b8161333f565b9050919050565b600081905092915050565b600061339882612807565b6133a28185613382565b93506133b2818560208601612823565b80840191505092915050565b60006133ca828561338d565b91506133d6828461338d565b91508190509392505050565b60008190508160005260206000209050919050565b60006020601f8301049050919050565b600082821b905092915050565b6000600883026134447fffffffffffffffffffffffffffffffffffffffffffffffffffffffffffffffff82613407565b61344e8683613407565b95508019841693508086168417925050509392505050565b6000819050919050565b600061348b613486613481846127d3565b613466565b6127d3565b9050919050565b6000819050919050565b6134a583613470565b6134b96134b182613492565b848454613414565b825550505050565b600090565b6134ce6134c1565b6134d981848461349c565b505050565b5b818110156134fd576134f26000826134c6565b6001810190506134df565b5050565b601f82111561354257613513816133e2565b61351c846133f7565b8101602085101561352b578190505b61353f613537856133f7565b8301826134de565b50505b505050565b600082821c905092915050565b600061356560001984600802613547565b1980831691505092915050565b600061357e8383613554565b9150826002028217905092915050565b61359782612807565b67ffffffffffffffff8111156135b0576135af612c54565b5b6135ba8254612fda565b6135c5828285613501565b600060209050601f8311600181146135f857600084156135e6578287015190505b6135f08582613572565b865550613658565b601f198416613606866133e2565b60005b8281101561362e57848901518255600182019150602085019450602081019050613609565b8683101561364b5784890151613647601f891682613554565b8355505b6001600288020188555050505b505050505050565b600081519050919050565b600082825260208201905092915050565b600061368782613660565b613691818561366b565b93506136a1818560208601612823565b6136aa8161284d565b840191505092915050565b60006080820190506136ca6000830187612944565b6136d76020830186612944565b6136e460408301856127dd565b81810360608301526136f6818461367c565b905095945050505050565b60008151905061371081612744565b92915050565b60006020828403121561372c5761372b61270e565b5b600061373a84828501613701565b91505092915050565b60006040820190506137586000830185612944565b61376560208301846127dd565b939250505056fea2646970667358221220489a3427f51bd4f5a92324c50f2e13c56ae595fb26b700bb73b4cbca3712750564736f6c63430008180033",
  "linkReferences": {},
  "deployedLinkReferences": {}
}